:020000040800F2
:10000000200D002071020008FB12000809110008F1
:10001000F9120008C50300086B1700080000000073
:10002000000000000000000000000000B101000816
:10003000C7030008000000000D020008FD120008C0
:100040008B0200088B0200088B0200088B0200085C
:100050008B0200088B0200088B0200088B0200084C
:100060008B0200088B0200088B0200088B0200083C
:100070008B0200088B0200088B0200088B0200082C
:100080008B0200088B0200088B02000800000000B1
:100090000000000000000000000000008B020008CB
:1000A0008B0200088B0200088B0200088B020008FC
:1000B0008B0200088B0200088B0200088B020008EC
:1000C0008B0200088B0200088B0200088B020008DC
:1000D0008B0200088B0200088B0200080000000061
:1000E0008B0200088B0200088B0200080000000051
:1000F0000000000000000000000000008B0200086B
:10010000000000008B0200088B0200088B02000830
:1001100000000000000000000000000000000000DF
:100120008B0200088B0200088B0200088B0200087B
:100130008B0200080000000000000000000000002A
:100140000000000000000000000000008B0200081A
:100150008B0200088B0200088B0200088B0200084B
:100160008B0200088B020008000000000000000065
:10017000000000000000000000000000000000007F
:10018000000000008B0200080000000000000000DA
:100190008B0200088B020008DFF810D000F000F995
:1001A000004800477D1E0008AFF30080200D0020AE
:1001B0002C4B19680868B0E8F04F80F30988BFF34A
:1001C0006F8F4FF0000080F311887047000000002F
:1001D00008480068006880F308884FF0000080F34A
:1001E000148862B661B6BFF34F8FBFF36F8F00DF25
:1001F00000BF00BF08ED00E0DFF80C00016841F42B
:1002000070010160704700BF88ED00E0EFF30980E6
:10021000BFF36F8F134B1A681EF0100F08BF20ED4D
:10022000108A20E9F04F106009B44FF0500080F3BD
:100230001188BFF34F8FBFF36F8F02F06FF84FF04D
:10024000000080F3118809BC19680868B0E8F04F15
:100250001EF0100F08BFB0EC108A80F30988BFF3BE
:100260006F8F704710000020EFF30580704700008B
:100270000648804706480047FEE7FEE7FEE7FEE740
:10028000FEE7FEE7FEE7FEE7FEE7FEE7A91300084C
:10029000990100082DE9F05F0546002092469B4633
:1002A00088460646814640241BE02846414647468C
:1002B000224600F065F853465A46C01A914110D3C1
:1002C00011461846224600F04CF82D1A67EB01083B
:1002D0004F4622460120002100F043F817EB0009A9
:1002E0004E41201EA4F10104DFDC484631462A4677
:1002F0004346BDE8F09FD2B201E000F8012B491E51
:10030000FBD270470022F6E710B513460A460446B2
:100310001946FFF7F0FF204610BD10B5002200E09F
:10032000521C835C8C5CA34201D1002BF8D1D8B263
:10033000E1B2401A10BD30B50B4601460020202224
:10034000012409E021FA02F59D4205D303FA02F5E2
:10035000491B04FA02F52844151EA2F10102F1DC42
:1003600030BD202A04DB203A00FA02F10020704759
:100370009140C2F1200320FA03F3194390407047E3
:10038000202A04DB203A21FA02F00021704721FAEA
:1003900002F3D040C2F12002914008431946704751
:1003A000064C074D06E0E06840F0010394E80700C2
:1003B00098471034AC42F6D3FFF7F2FEEC24000865
:1003C0000C250008FEE7704772B6FEE72DE9F84FEE
:1003D000DFF8B8A10022012403254FF00F090AF12C
:1003E000040BAAF1040E00BF0B6804FA02F63340B6
:1003F000B34273D10F7907F00307012F01D0022F09
:1004000016D187684FEA420805FA08FC27EA0C076C
:10041000D1F80CC00CFA08FC4CEA070CC0F808C074
:100420004768B7430E79C6F3001696403E434660D0
:100430000E79F643B6070DD0C768560005FA06FCDC
:1004400027EA0C07D1F808C00CFA06FC4CEA070CA6
:10045000C0F80CC00E7906F00306022E10D1D608A3
:1004600000EB8608D8F8206057074FEAD76C09FAE6
:100470000CF7BE430F6907FA0CF73743C8F8207032
:1004800006684FEA420C05FA0CF7BE430F7907F0F5
:10049000030707FA0CF7374307604E6816F4403F2E
:1004A0006DD03B4E376847F480473760366822F09E
:1004B000030706F480460096364E07EB060CDCF880
:1004C000086897073F0F09FA07F826EA0806DFF8D9
:1004D000C880404503D14FF000081EE04FE0DFF830
:1004E000BC80404502D14FF0010816E0DFF8B08033
:1004F000404502D14FF002080FE0DFF8A8804045E8
:1005000002D14FF0030808E0DFF89C80404502D19B
:100510004FF0040801E04FF0070808FA07F848EA2E
:100520000608CCF80888DAF800605746D1F804C00D
:100530009E435FEACC2C00D51E433E60DBF8006092
:100540005F46D1F804C09E435FEA8C2C00D51E4361
:100550003E60DEF800607746D1F804C09E435FEA53
:100560008C3C00D51E433E60084F083F3E68D1F8E2
:1005700004C09E435FEACC3C00D51E433E60521C43
:10058000102AFFF431AFBDE8F88F0000083C0140AD
:1005900044380240003001400000024000040240A4
:1005A00000080240000C02400010024000690840B0
:1005B00000D0012070470AB1816170470904FBE750
:1005C00001488068704700000000002002488168F0
:1005D0000278114481607047000000200B4810B57C
:1005E000016841F400710160016841F480610160BB
:1005F000016841F480710160032000F065F80F206C
:1006000000F006F800F024F8002010BD003C024085
:1006100070B50D4D04464FF47A712878B1FBF0F0B7
:100620000A490968B1FBF0F000F094FB48B9102CBE
:1006300007D200222146501E00F026F800206C60F0
:1006400070BD012070BD0000000000200C000020E3
:100650000C4882B0016841F480410160006800F4F8
:10066000804000900748001F016841F08051016000
:100670000068002200F0805000900F21901E02B010
:1006800000F002B844380240F0B40E4B1B680C4630
:10069000C3F30223C3F10705042D00D90425191D56
:1006A000072901D2002300E0DB1E012606FA05F12E
:1006B000491E214099409E40761E16403143F0BCB1
:1006C00001F064B80CED00E0064900F0070208688C
:1006D0004FF6FF03184040EA0220034A1043086027
:1006E000704700000CED00E00000FA052DE9F0472E
:1006F0000E46050065D0DFF81481D8F80000F7B287
:1007000000F00700B04207D288F80070D8F8000067
:1007100000F00700B04254D128683D4C810712D543
:10072000400703D5206840F4E05020602878000797
:1007300003D5206840F4604020602068A96820F05C
:10074000F000084320602878C0072DD03049686841
:100750000839012812D0022813D0032811D00968C3
:10076000890700292DDA216821F003010143216066
:10077000FFF726FF814641F2883A0EE009688903B7
:10078000EFE709688901ECE7FFF71AFFA0EB090121
:10079000514502D90320BDE8F0872068696800F060
:1007A0000C00B0EB810FEFD1D8F80010404601F0FB
:1007B0000701B14207D90770006800F00700B04296
:1007C00001D00120E7E72878400705D52068E968CF
:1007D00020F4E050084320602878000706D5206800
:1007E000296920F4604040EAC100206000F038F838
:1007F0002168084AC1F30311515CC84006490860EA
:1008000006480068FFF704FF0020C4E7003C0240F0
:1008100008380240902400080C000020040000204A
:100820000448054900680968044AC1F38221515C03
:10083000C84070470C00002008380240A02400087F
:100840000448054900680968044AC1F34231515C13
:10085000C84070470C00002008380240A02400085F
:10086000154810B5006810F00C02144813D0144954
:10087000042A0FD0082A0ED10F4C241F22682368A7
:1008800002F03F025B0207D52068C0F38810A0FB8E
:10089000010106E0084610BD2168C1F38811A1FBE3
:1008A00000010023FFF7F6FC2168C1F30141491C58
:1008B0004900B0FBF1F010BD083802400024F400FC
:1008C00040787D012DE9F84F04006ED02078DFF8E4
:1008D0004C93C007A9F104054AD009F1040001684E
:1008E000C1F38101012908D00068C0F3810002280A
:1008F0000AD1D9F80000400206D52868800337D510
:1009000060680028E1D033E06068B0F5803F10D027
:10091000B0F5A02F286810D020F480302860286817
:1009200020F4802028606068A8B1FFF749FE0646E1
:100930000DE0286840F48030F4E740F4802028601F
:10094000F7E700BFFFF73CFE801B642873D82868D8
:100950008003F7D50CE0FFF733FE064605E000BF45
:10096000FFF72EFE801B6428F0D828688003F7D498
:100970002078DFF8AC8280074FF0000A3ED5A74808
:10098000001D016811F00C0F08D00068C0F3810051
:1009900002280BD1D9F80000400207D4286880074C
:1009A00016D5E068012800D112E033E1E068B8B163
:1009B0000120C8F80000FFF703FE064605E000BF6F
:1009C000FFF7FEFD801B0228C0D828688007F7D5F6
:1009D0002868216920F0F80040EAC10028600DE095
:1009E000C8F800A0FFF7ECFD064604E0FFF7E8FDBD
:1009F000801B02281FD828688007F7D420780007BA
:100A000022D5864F87486169703771B10121016035
:100A1000FFF7D6FD064604E0FFF7D2FD801B022853
:100A200009D838688007F7D50EE0C0F800A0FFF7B6
:100A3000C7FD064605E082E0FFF7C2FD801B0228E5
:100A40007DD838688007F7D42078400768D5DFF86C
:100A5000CCB100270BF13C0BDBF80000C0000BD43D
:100A6000DBF8001041F08051CBF80010DBF80000FB
:100A7000012700F0805000906B4E3068C00510D404
:100A8000306840F480703060FFF79AFD009005E018
:100A9000FFF796FD0099401A022850D83068C0052B
:100AA000F6D55E4EA0686C3601280FD00528306858
:100AB00010D020F001003060306820F00400306079
:100AC000A068B8B1FFF77CFD00900FE0306840F0FF
:100AD0000100F4E740F004003060F7E7FFF770FD35
:100AE0000099411A41F28830814266D83068800707
:100AF000F4D50EE0FFF764FD009007E0FFF760FD1E
:100B00000099411A41F28830814256D830688007F6
:100B1000F4D42FB1DBF8001021F08051CBF8001095
:100B2000A069C8B33D49091D0968C1F381010229C3
:100B30004AD00228504607D0C8F8600000E03CE0E8
:100B4000FFF73EFD04463BE04746C8F86000FFF76C
:100B500037FD064605E000BFFFF732FD801B022887
:100B60002BD828688001F7D4D4E907010843A16A8B
:100B70002E4A490802EB0141626A41EA82110843A8
:100B800094F82C1040EA0161C9F800100120386681
:100B9000FFF716FD044606E03EE000BFFFF710FD3C
:100BA000001B022809D828688001F7D534E000BF6F
:100BB000FFF706FD001B022802D90320BDE8F88FCD
:100BC00028688001F4D427E00128F7D0D9F8000084
:100BD000E26900F4800191421CD1226A00F03F01D9
:100BE000914217D147F6C071626A0140B1EB821F92
:100BF00010D1A26A4FF0FF3300F4403103EB5202F0
:100C0000B1EB024F06D194F82C1000F07060B0EBFD
:100C1000016F01D00120D1E70020CFE70438024066
:100C200000004742800E4742007000400000FFFF76
:100C300070B5040009D0606A002540B12561656186
:100C4000A56294F8510040B10CE0012070BD6068CD
:100C5000B0F5827FF4D0E561F2E784F85050204689
:100C600000F044F8022084F851002068016821F067
:100C700040010160A088218900F4827001F40441E0
:100C80000843A18901F400610843217C01F00201BD
:100C90000843217D01F001010843218B01F400711B
:100CA0000843217F01F03801084394F8201001F037
:100CB00080010843218D01F4005108432168086038
:100CC000A069042101EA104094F8241001F01001F9
:100CD0000843216848602068C16921F40061C1614E
:100CE0006565012084F85100002070BD10B586B004
:100CF000044614216846FFF705FB13492068884223
:100D000020D112480021026842F48052026000683B
:100D100000F4805005900D481438026842F0020239
:100D20000260006800F00200059028200090022078
:100D3000CDE9010103200390052004906946044891
:100D4000FFF744FB06B010BD0030014044380240BC
:100D50000004024010B5401EB0F1807F01D3012095
:100D600010BD4FF0E02460610F21601700F00EFD10
:100D70000020A06107202061002010BD70B590F810
:100D80003C20012A2CD0012480F83C40022280F82B
:100D90003D2003685A689D6822F070060A68324355
:100DA0005A60104B02689A420ED0B2F1804F0BD0BD
:100DB0000D4B9A4208D00D4B9A4205D00C4B9A42EB
:100DC00002D00C4B9A4204D1496825F080031943A4
:100DD000916080F83D40002180F83C10084670BDCD
:100DE000022070BD000001400004004000080040E7
:100DF000000C00400040014010B586B004461421AC
:100E00006846FFF77FFA0D492068884214D10C48E4
:100E10000021026842F002020260006800F0020055
:100E20000590012000900220CDE90101CDE90310D9
:100E300069460448FFF7CAFA06B010BD0004004036
:100E4000303802400004024070B5044690F83C007F
:100E500000260D4601280FD0012084F83C006AB11D
:100E6000042A1DD0082A2FD00C2A3FD001260020AA
:100E700084F83C00304670BD022070BD206800F050
:100E8000EBFA2068816941F008018161206881697D
:100E900021F004018161206881692A69114311E010
:100EA000206800F001FB2068816941F400618161E4
:100EB0002068816921F480618161206881692A69E3
:100EC00041EA02218161D2E7206800F019FB206825
:100ED000C16941F00801C1612068C16921F00401C4
:100EE000C1612068C1692A69114311E0206800F0DE
:100EF00033FB2068C16941F40061C1612068C169A8
:100F000021F48061C1612068C1692A6941EA022136
:100F1000C161ACE710B5040003D094F83D0010B1F6
:100F200007E0012010BD002084F83C00204600F0BE
:100F30001FF8022084F83D00211D206800F03CFAD3
:100F4000012084F8460084F83E0084F83F0084F8CD
:100F5000400084F8410084F8420084F8430084F89B
:100F6000440084F8450084F83D00002010BD0000D6
:100F700008B500680649884208D10648016841F072
:100F800002010160006800F00200009008BD00004E
:100F9000000400404038024070B5040004D094F8CA
:100FA0004100002510B106E0012070BD84F84050DA
:100FB000204600F023F8242084F841002068C1680E
:100FC00021F40051C160204600F010FB2068016947
:100FD00021F4904101612068416921F02A014161B9
:100FE0002068C16841F40051C1606564202084F824
:100FF000410084F842006563002070BD10B586B0E2
:10100000044614216846FFF77DF914492068884298
:1010100021D113480021026842F0100202600068EA
:1010200000F0100005900E481438026842F00102EA
:101030000260006800F0010005904FF4C06000906D
:101040000220CDE9010103200390072004906946A6
:101050000448FFF7BBF906B010BD000000100140C6
:1010600044380240000002402DE9F843044690F85D
:101070004100984616460D46202802D00220BDE8C1
:10108000F88385B17EB100206064212084F841009E
:10109000FFF796FAA6848146E684A0682027B0F57B
:1010A000805F02D003E00120E9E7206910B12E46FD
:1010B00000250EE000260CE08021204600F01CFBFD
:1010C000A8B9C6B116F8010B21684860E08C401E33
:1010D000E084E08C4B464FF00002CDF80080002801
:1010E000EAD14FF04001204600F006FB40B184F801
:1010F00041700320C3E735F8020BC0F30800E3E7B3
:1011000084F841700020BAE7FEE700002DE9F041C5
:1011100086B014216846FFF7F5F8384800240168C6
:1011200041F004010160016801F0040105910168CA
:1011300041F001010160016801F0010105910168C0
:1011400041F0020101600068DFF8B48000F00200A5
:101150000590002249F608114046FFF72CFA294F66
:1011600000224EF2D4313846FFF725FA012202213F
:101170003846FFF720FA012208214046FFF71BFA04
:1011800049F2081000900125CDE901546946404616
:101190000394FFF71BF930204FF48816CDE90006C1
:1011A000694602944046FFF711F94CF2C6300090B0
:1011B000CDE90154694638460394FFF707F928033F
:1011C000CDE90006694602943846FFF7FFF842F27F
:1011D000100000901125CDE901546946384603946A
:1011E000FFF7F4F8F8140090CDE901546946404641
:1011F0000394FFF7EBF806B0BDE8F0813038024009
:101200000000024000040240104810B50E49016081
:101210004FF4827141604FF4004181600021C16050
:101220004FF400720161C0E90512C16101624162BF
:1012300081620A21C162FFF7FBFC002803D0BDE8F0
:101240001040FFF7C1B810BD00300140F800002089
:1012500010B58AB0002407941C2168460894FFF753
:1012600051F81648144901606421C0E901144FF691
:10127000FF71C0E903148461FFF74CFE08B1FFF76A
:10128000A3F8079407A90D480894FFF777FD08B164
:10129000FFF79AF86020CDE900040294082269461D
:1012A00006480494FFF7D0FD08B1FFF78DF8034816
:1012B000FFF7A2FD0AB010BD00040040500100205D
:1012C0000C4810B50A4901604FF4E131416000213A
:1012D00081600C22C160C0E904128161C161FFF725
:1012E0005BFE002803D0BDE81040FFF76DB810BDCD
:1012F0000010014098010020FEE7FEE710B5FFF75F
:1013000065F901F053F8012803D0BDE8104001F061
:1013100037B810BD30B593B030216846FEF7F2FF04
:1013200014210CA8FEF7EEFF1D480024016841F0CF
:1013300080510160006800F08050119019480168E8
:1013400041F4404101600068102100F440401190D8
:101350000A2000900120CDE903010225CDE9050511
:101360000820CDE907406420CDE9090504200B9051
:101370006846FFF7A7FA08B172B6FEE70F20CDE97D
:101380000C054FF48050CDE90E4003210CA81094B9
:10139000FFF7ACF9002801D072B6FEE713B030BDFC
:1013A00040380240007000400248016841F470017A
:1013B0000160704788ED00E0F0B502681F4B204CDB
:1013C000204D214E4FF0804C984207D0604505D00B
:1013D000A04203D0A84201D0B04203D122F070074E
:1013E0004A683A43984210D060450ED0A0420CD0D3
:1013F000A8420AD0B04208D0144CA04205D0144CE8
:10140000A04202D0134CA04203D122F44074CA6817
:1014100022434C6922F0800222438C68C4620C682B
:101420008462984201D109690163016841F00401B5
:101430000160012141610260F0BD00000000014037
:101440000004004000080040000C00400040014043
:10145000004401400048014030B5036A026A22F0AE
:10146000010202624268846924F073050C682C430F
:1014700023F002058B682B430A4DA8420BD123F0C1
:101480000805CB6822F440722B434D6923F0040316
:1014900015438A692A434260846149684163036253
:1014A00030BD00000000014030B5026A036A23F03D
:1014B00010030362436884690D6824F4E64444EA37
:1014C00005248D6822F0200242EA05120B4DA84245
:1014D0000ED1CD6822F0800242EA05124D6923F454
:1014E000406343EA85038D6922F0400243EA8503A5
:1014F0004360846149688163026230BD000001403D
:1015000030B5036A026A22F4807202624268C469DA
:1015100023F4007324F073050C682C438D6843EAB0
:1015200005230C4DA8420ED1CD6823F4006343EA95
:1015300005234D6922F4405242EA05128D6923F4D5
:10154000806342EA05124260C4614968C163036274
:1015500030BD00000000014030B5046A026A22F488
:10156000805202624268C3690D6823F4E64343EA8D
:1015700005238D6824F4005444EA0534064DA8423E
:1015800004D14D6922F4804242EA85124260C3616F
:1015900049680164046230BD0000014001680C31FB
:1015A00051E8002F22F4907241E80023002BF5D17E
:1015B0000168143151E8002F22F0010241E80023B4
:1015C000002BF5D1016B012909D101680C3151E8DB
:1015D000002F22F0100241E80023002BF5D120213A
:1015E00080F84210002101637047000070B5044686
:1015F00000680169E26821F44051114301612169E9
:10160000A068E26908436169114308432168CA6818
:1016100049F20C639A430243CA6020684169A26997
:1016200021F440711143416131492068884202D060
:101630003049884202D1FFF703F901E0FFF7F0F8E3
:10164000E2690023192164253226B2F5004F626851
:1016500028D0A0FB0101930F9200FEF71BFE01466C
:10166000B0FBF5F06FF01802504301EB800006EB81
:101670000010B0FBF5F000F0F002B1FBF5F002EB6A
:101680000012B1FBF5F06FF01803584301EB800036
:1016900006EB0010B0FBF5F000F00F0021681044DD
:1016A000886070BDA0FB010192185B41FEF7F2FD5E
:1016B0000146B0FBF5F00201B1FBF5F06FF0180345
:1016C000584301EB800006EBC000B0FBF5F000F0E2
:1016D000F80002EB4002B1FBF5F0584301EB80004B
:1016E00006EBC000B0FBF5F000F00700D6E7000005
:1016F00000100140001401402DE9F84398461746B8
:101700000D460446089E24E0701C22D0FEF758FFC8
:10171000A0EB0800B0421AD8CEB12068C1684907D2
:1017200017D5802D15D0402D13D00168C943090766
:101730000FD401680025406800902046FFF72EFF77
:101740000820606484F840500120BDE8F88303203D
:10175000FBE72068006835EA000004D00020B842AA
:10176000D2D00020F1E70120F9E7FEE70FB4054BE6
:1017700010B503A9044A029800F028F810BC5DF8DF
:1017800014FB0000551D0008EC0000200907090E9D
:10179000002804DB00F1E02080F80014704700F01E
:1017A0000F0000F1E02080F8141D704702E008C827
:1017B000121F08C1002AFAD170477047002001E0CB
:1017C00001C1121F002AFBD1704700002DE9FF4F15
:1017D00089B09B460446002506E025280BD05A46D2
:1017E0000B999047641C6D1C20780028F5D10DB032
:1017F0002846BDE8F08F0027B8460122474900E09F
:10180000074314F8013F203B02FA03F00842F7D1E6
:1018100020782E2819D114F8010F47F004072A2840
:101820000ED06FF02F022078A0F1300109290CD8DA
:1018300008EB880102EB410100EB0108641CF2E7B0
:101840000A98641C50F8048B0A9020780028CED0A7
:10185000642808D0692806D075281ED05A460B99EE
:1018600090476D1C58E00A994FF00A0901C90A9186
:10187000002802DA40422D2102E0390504D52B214F
:101880008DF82010012103E0F90704D02021F7E7AB
:101890008A4608AE0DE00021FAE70A994FF00A09DE
:1018A00001C90A91F7E74946FEF745FD303106F8D0
:1018B000011D0028F7D1ADEB060000F120097807E3
:1018C00001D44FF00108C84502DDA8EB090000E093
:1018D00000208046002706E008A85A46C05D0B9904
:1018E00090476D1C7F1C5745F6DB04E030205A46BC
:1018F0000B9990476D1CB8F10001A8F10108F5DCC7
:1019000005E016F8010B5A460B9990476D1CB9F18A
:101910000001A9F10109F4DC641C65E70928010054
:1019200008B50EA000F0B2F8104C206010A000F036
:10193000ADF8606000208DF800004FF4FA756A463B
:101940000021606800F095F89DF800100BA0FFF7EB
:101950000DFF284600F0DCFAF1E700006465765FD1
:101960006C63645F746F756368000000E4000020BE
:101970006465765F6D707536303530006368697008
:101980005F69643A25640A00704700000B4810B58F
:10199000094901600A4941600A4981600A490161B7
:1019A0000A4941610A49C1600A4800F01BF8BDE8D4
:1019B000104009A0FFF7DABE4B1A0008A406002069
:1019C000551A00083D1A00085F1A0008691A000835
:1019D000471A000850000020626F61726420696E2F
:1019E00069740A00002804D001460248006800F02B
:1019F000DABA70474C00002070B500F0ADFA054926
:101A0000054C064D086002E020688047241DAC426A
:101A1000FAD370BD4C0000200C25000820250008DA
:101A20006FF003007047002070476FF003007047AD
:101A30006FF0030070476FF00300704710B5406807
:101A4000FFF7EEFF10BD0020704710B54068FFF7AC
:101A5000EAFF10BD10B54068FFF7E7FF10BD10B5F5
:101A60004068FFF7E5FF10BD10B54068FFF7E3FFE2
:101A700010BD40B1836833B1032B04D0042B02D0D6
:101A8000C368DB6818476FF0010070472DE9F0412B
:101A90000E4C0646206880B17EB10068856808E07B
:101AA0002F6831463868FEF738FC48B1AD682068C9
:101AB00008B120684068A842F2D10020BDE8F0815A
:101AC000384600F005F83846F8E700004C000020E2
:101AD00010B5040008D0E068016820468847002857
:101AE00001D10121A16010BD6FF0010010BD6FF0A8
:101AF00003007047002070476FF0030070476FF0DD
:101B0000030070476FF00300704710B54068FFF79F
:101B1000EEFF10BD0020704710B54068FFF7EAFFE8
:101B200010BD10B54068FFF7E7FF10BD10B5406865
:101B3000FFF7E5FF10BD6FF0030070470B46A722CB
:101B40001521014800F080BAB400002030B587B0FC
:101B500014216846FEF7D6FB15480025016841F0C0
:101B6000020101600068134C00F002000590A1889A
:101B70002A462068FEF71FFD218A0022E068FEF752
:101B80001AFDA0880090A068CDE90105039569467B
:101B90002068FEF71BFC208A00906069CDE90105F2
:101BA00003956946E068FEF711FC07B0002030BDE0
:101BB00030380240B40000206FF0030070476FF02F
:101BC000030070476FF00300704710B54068FFF7DF
:101BD000B2FF10BD10B503466FF00300002903D11A
:101BE00011465868FFF7AAFF10BD10B54068FFF70F
:101BF000ADFF10BD10B54068FFF7DEFF10BD10B59A
:101C00004068FFF7DCFF10BD10B54068FFF7DAFF52
:101C100010BD10B54068FFF775FF10BD6FF00300F1
:101C2000704700000B4675226821014800F00CBA8D
:101C3000CC00002070B586B014216846FEF762FB28
:101C400016480025016841F0020101600068144C4B
:101C500000F002000590A18801222068FEF7ABFC8D
:101C6000218A0122E068FEF7A6FCA0880090A06807
:101C700001260395CDE9010669462068FEF7A6FB1B
:101C8000208A009060690395CDE901066946E06805
:101C9000FEF79CFB06B0002070BD0000303802400B
:101CA000CC0000206FF0030070476FF00300704716
:101CB0006FF00300704710B54068FFF7AFFF10BD2D
:101CC00010B503466FF00300002903D11146586890
:101CD000FFF7A8FF10BD10B54068FFF7ABFF10BDC0
:101CE00010B54068FFF7DEFF10BD10B54068FFF784
:101CF000DCFF10BD10B54068FFF7DAFF10BD6FF0D4
:101D0000030070476FF0030070476FF003007047E7
:101D10006FF0030070476FF00300704710B5406824
:101D2000FFF7EDFF10BD0020704710B54068FFF7CA
:101D3000E9FF10BD10B54068FFF7E7FF10BD10B513
:101D40004068FFF7E5FF10BD10B54068FFF7E3FFFF
:101D500010BD000038B504468DF800004FF6FF7343
:101D6000012269460248FFF77FF9204638BD00008E
:101D70009801002010B5002821D0114B0022001F2F
:101D8000196803E0814203D80A4649680029F9D15D
:101D900052B11368841A9C4204D100681844106040
:101DA000104602E0506000E0186039B102680B1A7A
:101DB000934203D10B681A4402604968416010BD28
:101DC000F00000200B4810B5094901600A49416044
:101DD0000A4981600A4901610A4941610A49C160B1
:101DE0000A48FFF7FFFDBDE8104009A0FFF7BEBCA1
:101DF000191B0008BC060020231B00080B1B000851
:101E00002D1B0008131C0008151B0008640000208F
:101E10006C636420696E6974206F6B000B4810B5A9
:101E2000094901600A4941600A4981600A49016122
:101E30000A4941610A49C1600A48FFF7D3FDBDE87C
:101E4000104009A0FFF792BCEB1B0008EC06002035
:101E5000F51B0008CB1B0008FF1B0008091C00082D
:101E6000D51B00088C0000206C63645F746F756381
:101E70006820696E6974206F6B000000FEF7AEFB8E
:101E8000FFF748FAFFF742F9FFF7BEF9FFF7E0F96D
:101E9000FFF716FAFFF7B0FDFFF742FDFFF774FDFD
:101EA000FCE70000F0B50B30154D20F007010024D1
:101EB000144A0FE003688B420BD38B4205D95E1A9C
:101EC00043184768C3E9006700E04368136002C035
:101ED00004E0021D10680028ECD12046002802D141
:101EE000286808B10020F0BD064A07481060074A7C
:101EF000121A22F00702C0E9002401202860D7E767
:101F0000F4000020F0000020240700202009002019
:101F100070B5054600244FF47A7603E0304600F0B1
:101F200004F8641CAC42F9D370BD70B54FF0E024E6
:101F30000022656964214843A169A3698B42FCD0F2
:101F400002D2A1EB030102E0A5EB030631440A44EF
:101F500019468242F1D370BD70B50C20FFF7A2FF85
:101F6000061E14D00C20FFF79DFF05460C20FFF73E
:101F700099FF044665B15CB10020C5E90104286001
:101F8000C4E9015020603560C6E90140304670BDAB
:101F90003046FFF7EFFE2846FFF7ECFE2046FFF73E
:101FA000E9FE002070BD70B50D4604000DD00C2078
:101FB000FFF778FF056061684A6842604A68906090
:101FC00048608160A068401CA06070BD0B4810B5DF
:101FD000094901600A4941600A4981600A49016171
:101FE0000A4941610A49C1600A48FFF7FBFCBDE8A4
:101FF000104009A0FFF7BABBD71C00080407002057
:10200000E11C0008B71C0008EB1C0008F51C0008C8
:10201000C11C0008A00000206D70753630353020DE
:10202000696E6974206F6B000648416B096829B1BD
:10203000416BC968C9684968816270474FF0FF31D8
:10204000FAE70000100000202DE9F0411D46164679
:102050000C46074600F0D3F86006010E384600F043
:10206000A5F8384600F051F808B33146384600F07C
:102070009DF8384600F049F8384600F0C0F80120D5
:1020800000EB4400C1B2384600F090F8384600F04A
:102090003CF82946384600F010F80121384600F097
:1020A00071F8384600F0CAF80020BDE8F0813846E3
:1020B00000F0C4F86FF00600F7E770B506460020A0
:1020C0000D46087007240021304600F045F8062030
:1020D000FFF72BFF0121304600F03EF80620FFF706
:1020E00024FF304600F041F8A0402978641E0843E0
:1020F00064B22870002CE6DA0021304600F02CF89B
:10210000BDE870400620FFF710BF70B505460524F6
:10211000012100F02EF80121284600F01DF80620CC
:10212000FFF703FF0AE00620FFF7FFFE641EE4B29C
:1021300004D2284600F082F8002070BD284600F046
:1021400014F80128EFD00021284600F005F80620F9
:10215000FFF7EBFE012070BD0A46018AC368012A21
:1021600000D000221846FEF726BA81880068FEF7E4
:102170001DBA0A4681880368012A00D00022184649
:10218000FEF719BA10B50446FFF7F3FF0121204608
:10219000FFF7E2FF0620FFF7C8FE00212046FFF709
:1021A000DBFFBDE810400620FFF7BFBE70B50D464F
:1021B0000646072400213046FFF7CEFF0620FFF732
:1021C000B4FE25FA04F000F001013046FFF7D1FF1C
:1021D0000620FFF7AAFE01213046FFF7BDFF0620CB
:1021E000FFF7A3FE641E64B2002CE3DA0021304640
:1021F000FFF7B2FFBDE870400620FFF796BE10B5AE
:1022000004460121FFF7B5FF0620FFF78EFE0121EE
:102210002046FFF7A1FF0620FFF787FE002120469A
:10222000FFF7A7FF0620FFF780FE00212046FFF7FB
:1022300093FFBDE810400620FFF777BE10B50446B7
:102240000021FFF789FF0620FFF76FFE00212046DF
:10225000FFF78FFF0620FFF768FE01212046FFF7FA
:102260007BFF0620FFF761FE01212046FFF781FF7B
:10227000BDE810400620FFF758BE00000B4810B51F
:10228000094901600A4941600A4981600A490161BE
:102290000A4941610A49C1600A48FFF7A3FBBDE84A
:1022A000104009A0FFF762BA2B1D0008D4060020D9
:1022B000351D00081D1D00083F1D0008491D0008B0
:1022C000271D00087800002074656D706C617465CE
:1022D00020696E6974206F6B00000000D0E9013244
:1022E00001699A60D0E901235A604A68824201D1AB
:1022F00082684A60002202610868401E086008681F
:10230000704742684A6093688B6093685960916037
:1023100008610168491C016070470000164810B54B
:10232000016B11B10121C16110BD0021C1610169C1
:10233000124A01E0B9B1491E01EB810352F8233082
:10234000002BF7D001EB810302EB830202F10804BA
:1023500053685B685360A34201D15B685360DA68DD
:102360000260016110BD502080F31188BFF34F8FD0
:10237000BFF36F8FFEE7000010000020E001002097
:1023800010B5502080F31188BFF34F8FBFF36F8FCC
:1023900000F01AF818B104494FF08050086000208E
:1023A00080F3118810BD000004ED00E0054841698C
:1023B00019B1006B18B1002070470120704702204E
:1023C00070470000100000202DE9F0412E4C00273E
:1023D000206B28B1A069401CA0613846BDE8F0819F
:1023E000E668761CE66013D1606B006838B1502057
:1023F00080F31188BFF34F8FBFF36F8FFEE7606BE1
:10240000A16B6163A063206A401C2062FFF70CFE91
:10241000A06ADFF87880864209D3606B0068A0B1BB
:10242000606BC068C5686868864211D2A062206887
:10243000C06A00EB800158F82100012800D901276B
:10244000E0690028C9D00127C7E74FF0FF30EDE76A
:10245000281DFFF743FFA86A18B105F11800FFF720
:102460003DFFE86A2169884200D9206100EB8001C4
:1024700008EB8100291DFFF744FFE86A2168C96A5B
:102480008842CAD30127C8E710000020E0010020DD
:102490000000000000000000010203040607080914
:1024A00000000000010203046465765F626F6172E0
:1024B000645F31006465765F6C63645F31000000C7
:1024C0006465765F74656D706C6174655F31000082
:1024D0006465765F6C63645F746F756368000000A9
:1024E0006465765F6D7075363035300020250008E4
:1024F00000000020F8000000AC17000818260008B3
:10250000F8000020280C0000BC1700088D190008F6
:10251000C51D00087D2200081D1E0008CD1F0008F3
:102520000100000010000000000000000024F40082
:10253000000000000000000000000000000000009B
:10254000000000000000000000000000000000008B
:10255000000000000000000000000000000000007B
:10256000000000000000000000000000000000006B
:10257000A82400080000000000000000A4060020BD
:1025800000000000B424000800000000000000006B
:10259000BC06002000000000C0240008000000006D
:1025A00000000000D406002000000000D024000835
:1025B0000000000000000000EC0600200000000009
:1025C000E0240008000000000000000004070020D4
:1025D0000000000000040240100000001100000094
:1025E000000402404000000001000000000402401E
:1025F0000020000011000000000402400040000024
:1026000001000000000000000000000000000000C9
:082610000000000000000000C2
:040000050800019955
:00000001FF
